:100000000C9499000C94B8000C94B8000C94B800AF
:100010000C94B8000C94B8000C94B8000C94B80080
:100020000C94B8000C94E3090C94B8000C940407E9
:100030000C94B8000C94B8000C9439070C94B800D8
:100040000C94B8000C94B8000C94B8000C94B80050
:100050000C94B8000C94B8000C94B8000C94B80040
:100060000C94B8000C94B8000C94B8000C94B80030
:100070000C94B8000C94B8000C94B8000C94B80020
:100080000C94B8000C94B8000C94B8000664EC1BF7
:100090003C04BC163E3BE5B93CC93C37C29E5A3DC8
:1000A000660498083EEA69AAAA3E000000803F075D
:1000B000634236B79BD8A71A39685618AEBAAB5503
:1000C0008C1D3CB7CC5763BD6DEDFD753EF61772C8
:1000D00031BF000000803F08000000BE922449129A
:1000E0003EABAAAA2ABECDCCCC4C3E00000080BEBE
:1000F000ABAAAAAA3E00000000BF000000803F009B
:1001000000000000084178D3BB4387D1133D190E8E
:100110003CC3BD4282AD2B3E68EC8276BED98FE1F6
:10012000A93E4C80EFFFBE01C4FF7F3F00000000EE
:10013000000011241FBECFEFD0E1DEBFCDBF13E022
:10014000A0E0B1E0EAE7F4E200E00BBF02C00790F4
:100150000D92A432B107D9F713E0A4E2B3E001C0D5
:100160001D92A538B107E1F70E94BF000C943B1225
:100170000C9400000E9450070E9457020895CF93EC
:10018000DF93CDB7DEB7A0970FB6F894DEBF0FBEF2
:10019000CDBF0E942E055C010E9475060E94BA0028
:1001A0000CE10F2EF5E0CF2EDD24F02DCC0EDD1E60
:1001B0007E010894E11CF11C0F2EF4E28F2EF3E077
:1001C0009F2EF02D0F2EF6E26F2EF1E07F2EF02DF8
:1001D0000F2EF1E34F2EF1E05F2EF02D0F2EFEE3F8
:1001E0002F2EF1E03F2EF02D19821A821B821C82E5
:1001F000D601E02F1D92EA95E9F70E948D09182F8C
:10020000803741F5C5010E94D50500D000D000D04F
:10021000EDB7FEB73196ADB7BEB71296FC92EE922F
:10022000119780E091E093838283D5015E968D9152
:100230009C915F97958384830E942D0FEDB7FEB745
:1002400036960FB6F894FEBF0FBEEDBFC7010E94F1
:10025000A00910C0833629F480E090E00E94F708DE
:100260002FC08A3639F40E94590785E191E00E9437
:10027000A0094CC0173721F5C50164E170E0A40165
:100280000E944A0400D000D000D0EDB7FEB73196EE
:10029000ADB7BEB71296FC92EE921197738262824E
:1002A000958384830E942D0FEDB7FEB736960FB667
:1002B000F894FEBF0FBEEDBFC7010E94A0094DC05C
:1002C000133721F5C50166EF7FEFA4010E944A04B0
:1002D00000D000D000D0EDB7FEB73196ADB7BEB7B5
:1002E0001296FC92EE9211977382628295838483B8
:1002F0000E942D0FEDB7FEB736960FB6F894FEBFED
:100300000FBEEDBFC7010E94A0094EC0113629F5EE
:10031000C5016DE270E00E94DA0400D000D000D088
:10032000EDB7FEB73196ADB7BEB71296FC92EE921E
:100330001197538242828DE290E0958384830E94DC
:100340002D0FEDB7FEB736960FB6F894FEBF0FBE71
:10035000EDBFC7010E94A00947CF143629F5C5019A
:1003600063ED7FEF0E94DA0400D000D000D0EDB73B
:10037000FEB73196ADB7BEB71296FC92EE921197CA
:100380005382428283ED9FEF958384830E942D0FD9
:10039000EDB7FEB736960FB6F894FEBF0FBEEDBFB1
:1003A000C7010E94A00920CF123709F01DCF0E947B
:1003B0005209C1010E94A00917CF80EC87B987E8D4
:1003C00086B9089597B18F71982B97B9369A369957
:1003D000FECF84B195B108950F931F93CF93DF9310
:1003E000C5E0D0E000E010E082E00E94E201080FEA
:1003F000191F89E190E00E94CB092197A9F7C80154
:1004000065E070E00E94A20D862F972FDF91CF91BB
:100410001F910F9108950E94EC019C01B90188275A
:1004200077FD8095982F0E94F50A2AE534E64BE87F
:100430005FEB0E94E40B462F572F682F792FCB01DB
:10044000BA0120E03AED47E956E40E94810B0E9490
:10045000C70A862F972F0895DE9A90E00E94CB0955
:10046000DE988BB3807F8BBB0895CF93C82FDC9829
:100470008BB39C2F92959F70892B8BBB82E00E943F
:100480002C028BB3CF70C82BCBBB82E00E942C0216
:10049000DC9ACF91089581E00E94350281E090E0DE
:1004A0000E94CB09089582E00E94350208958FEFE3
:1004B0008ABB83E08BBBDE9A81E090E00E94CB098F
:1004C000DE9885E090E00E94CB09DE9A81E090E022
:1004D0000E94CB09DE98DE9A81E090E00E94CB0971
:1004E000DE9882E08BBB81E00E942C028BB38BBB39
:1004F00081E00E942C028BB38E608BBB81E00E9456
:100500002C028BB38BBB81E00E942C028BB38660E4
:100510008BBB81E00E942C028BB38BBB81E00E94DD
:100520002C02D89A81E00E942C02DC9A0E9453028D
:10053000089580EC0E943502089584E90E943502F6
:10054000089584ED0E9435020895883618F4806875
:100550000E943502089588E10E9435020895CF93E4
:10056000C82F8BB39C2F92959F70892B8BBB81E0FA
:100570000E942C028BB3CF70C82BCBBB81E00E94B2
:100580002C02CF910895EF92FF920F931F93CF9378
:10059000DF93E82FF92FEF0109900020E9F7219769
:1005A000CE1BDF0B1C161D0674F4E82EF92E00E09E
:1005B00010E0F70181917F010E94AF020F5F1F4F92
:1005C000C017D107B1F7DF91CF911F910F91FF9025
:1005D000EF900895CF92DF92EF92FF920F931F93C7
:1005E000CF93DF93CDB7DEB7C155D0400FB6F894A7
:1005F000DEBF0FBECDBFFE01E45AFF4F41915191C6
:10060000CE01019661E570E02E2F3F2F0E945C0F16
:1006100086E293E0BE016F5F7F4F0E941D0F282F7F
:10062000392F2115310509F448C086E293E0BE0157
:100630006F5F7F4F0E94260F0E944B026E0108944D
:10064000C11CD11C00E010E00F2EF4E1EF2EFF24BE
:10065000F02D2BC08A3051F4C801B7010E94A20DC1
:100660009701281B390B020F131F04C00E94AF0211
:100670000F5F1F4FC801B7010E94A20D0097A9F498
:10068000C801B7010E94A20D6230710549F06330C4
:10069000710549F06130710541F40E94990205C06D
:1006A0000E949D0202C00E94A102F60181916F0189
:1006B000882319F0003511056CF2CF5ADF4F0FB6C1
:1006C000F894DEBF0FBECDBFDF91CF911F910F9188
:1006D000FF90EF90DF90CF9008950F931F93CF93EB
:1006E000DF938C01EB01DC01EC91E695E170F0E029
:1006F000A881B981EA2BFB2BF983E883DC016C919B
:10070000617070E0660F771F6E2B7F2B7983688393
:1007100012964C91129750E0440F551F440F551FED
:10072000462B572B5983488313962C91139730E00F
:10073000220F331F220F331F220F331F242B352B81
:100740003983288314968C91149790E08295929522
:10075000907F9827807F9827822B932B998388837B
:1007600015962C91159730E0220F331F2295329564
:10077000307F3227207F3227822B932B99838883E7
:100780005C962D913C915D97B2E02D3B3B0718F0B4
:10079000806499838883F801868D978DF2E08D3B84
:1007A0009F0728F088819981806899838883D80180
:1007B00090968D919C919197B2E08D3B9B0728F08C
:1007C00088819981916099838883F80182A193A19E
:1007D000F2E08D3B9F0728F0888199819260998390
:1007E000888388819981DF91CF911F910F9108951E
:1007F000CF93DF93EC01888180FF04C08CE491E00B
:100800000E94A009888181FF04C083E691E00E94D4
:10081000A009888182FF04C08BE791E00E94A009B3
:10082000888183FF04C080E991E00E94A00988814B
:1008300084FF04C08BEA91E00E94A009888185FFB3
:1008400004C087EC91E00E94A009888186FF04C063
:100850008DED91E00E94A009888187FF04C081EF9F
:1008600091E00E94A0098881998190FF04C08BE0EB
:1008700092E00E94A0098881998191FF04C086E2DC
:1008800092E00E94A0098BE392E00E94A009DF9110
:10089000CF910895AF92BF92CF92DF92EF92FF92E5
:1008A0000F931F93CF93DF937C01EB016A011C161A
:1008B0001D060CF03FC088EC90E068EC70E00E94F0
:1008C0008E055E01AA0CBB1CCC0FDD1FCC0FDD1FFB
:1008D000CC0FDD1FAC0EBD1E00E010E0C0E0D1E08B
:1008E00023C0C7010E94D505F70184859585080FAF
:1008F000191FF60111821082C701B6010E946D0313
:10090000009791F080E090E060E070E00E948E053A
:10091000C70166EF7FEFA6010E944A04045610400B
:10092000C6010E94F803CD2F0A151B055CF5CC23E8
:10093000C1F228C0DD230CF588E39FEF68E37FEF69
:100940000E948E05CE01880F991FCC0FDD1FCC0FA2
:10095000DD1FCC0FDD1FC80FD91FDD238CF400E095
:1009600010E0F70184859585080F191FC7010E94C3
:10097000D505C017D107ACF305C000E010E002C0F8
:1009800000E010E080E090E060E070E00E948E0502
:10099000C8016AE070E00E94A20D862F972FDF91B8
:1009A000CF911F910F91FF90EF90DF90CF90BF906C
:1009B000AF900895EF92FF920F931F93CF93DF9321
:1009C0008C0126E230E0629FC001639F900D729F10
:1009D000900D112468E270E00E94A20D7B011616B2
:1009E0001706D4F488EC90E068E37FEF0E948E0550
:1009F000C0E0D0E0C8010E94D505F8018685978542
:100A0000C80FD91FCE15DF05ACF380E090E060E0A1
:100A100070E00E948E051BC07723CCF488E39FEF23
:100A200068EC70E00E948E05C0E0D0E0C8010E9432
:100A3000D505F80186859785C80FD91FEC16FD06E8
:100A4000ACF380E090E060E070E00E948E05DF9102
:100A5000CF911F910F91FF90EF90089581E090E06A
:100A600064E370E00E94C90D08950E947D0E089510
:100A7000EBE9F0E0908195FFFDCF80939C00089515
:100A800088E80E94380581E00E943805BF98C79A1F
:100A9000B79BFECF0895CF93C82F8DE80E943805ED
:100AA0008C2F0E943805CF910895BF92CF92DF928C
:100AB000EF92FF920F931F93CF93DF93082F6B0159
:100AC000C42FE52ED22FB32E8CE80E943805802F3C
:100AD0000E9438058C2D0E9438051C141D04A4F4B6
:100AE0000C2F1E2DED2EFB2CC0E0D0E0F8018191E3
:100AF0008F010E943805F70181917F010E9438051E
:100B00002196CC15DD0591F7DF91CF911F910F91C3
:100B1000FF90EF90DF90CF90BF9008950F931F93B9
:100B2000CF93DF93182F092FC62FD72F81E90E946B
:100B30003805802F0E943805812F0E9438058D2F9F
:100B40000E9438058C2F0E943805DF91CF911F91AC
:100B50000F9108950F931F93CF93DF93182F062FB4
:100B6000D42FC22F8BE80E943805002339F081E092
:100B700090E0112329F480E090E002C080E090E052
:100B80000E9438058D2F0E9438058C2F0E94380551
:100B9000DF91CF911F910F910895EBE9F0E08081F3
:100BA0008823ECF780919C000895EF92FF920F93B9
:100BB0001F93CF93DF937C0180919B00882344F4A3
:100BC000ACE9B0E0EBE9F0E08C9180818823E4F3BC
:100BD0008EE80E94380586E00E943805E701E49619
:100BE00087010E94CD05F80181938F01EC17FD0765
:100BF000C1F7F701948580E02585820F911D9587C7
:100C00008487968580E02785820F911D9787868748
:100C1000918980E02289820F911D928B818B93892B
:100C200080E02489820F911D948B838B968980E0CC
:100C30002789820F911D978B868B908D80E0218D67
:100C4000820F911D918F808F928D80E0238D820F76
:100C5000911D938F828F948D80E0258D820F911D41
:100C6000958F848F968D80E0278D820F911D978FB1
:100C7000868F90A180E021A1820F911D91A380A376
:100C800092A180E023A1820F911D93A382A382A54C
:100C900090E031A520E0280F391F36A325A330A905
:100CA00020E0820F931F95A784A792A980E023A933
:100CB000820F911D97A786A794A980E025A9820F8E
:100CC000911D91AB80AB96A980E027A9820F911D61
:100CD00093AB82AB85E090E00E94CB09DF91CF918E
:100CE0001F910F91FF90EF9008950F931F93CF9353
:100CF000DF938C01C9E9D0E080E1888388E18093AB
:100D00009A0086E080939D0080E80E94380581E883
:100D10000E94380588E00E94380584E690E00E9431
:100D2000CB0981E2888384E80E94380581E061E094
:100D300047E02FEF0E94AA05C8010E94D505C8010F
:100D40000E94D505DF91CF911F910F9108958C9A44
:100D5000949A81E090E00E94CB0994988C9883EC5F
:100D60008EBD81E090E090937A038093790308959B
:100D7000109278031092770310927E0310927D03F5
:100D800010927A031092790310927C0310927B03E5
:100D90000E94A7068091790390917A030097D1F77A
:100DA00080917B0390917C0360917703709178032D
:100DB00080917D0390917E03681B790B80E090E029
:100DC0000E94F30A2DEB37E346E856E30E94810BBD
:100DD00020E030E04AEA53E40E94810B20E030E05A
:100DE00048EC52E40E94810B9B01AC010E94FB097C
:100DF0000E94C70A862F972F08951FBC10927A0071
:100E000087B7846287BF08951F920F920FB60F9223
:100E100011248F939F938091790390917A0381306D
:100E2000910579F486B597B590937E0380937D0301
:100E300082E090E090937A038093790384E88EBDFA
:100E400011C08091790390917A038230910551F419
:100E500086B597B5909378038093770310927A03C1
:100E6000109279039F918F910F900FBE0F901F905A
:100E700018951F920F920FB60F9211248F939F9384
:100E800080917B0390917C03019690937C038093E7
:100E90007B039F918F910F900FBE0F901F9018951D
:100EA0000E94FE080E94DD010E9491090E94FD0639
:100EB00008956F927F928F929F92AF92BF92CF923E
:100EC000DF92EF92FF920F931F93CF93DF93CDB7F3
:100ED000DEB7CE54D2400FB6F894DEBF0FBECDBF02
:100EE00087E592E00E94A009FE01E759FE4F1192AA
:100EF00011921192119288E3DF011D928A95E9F710
:100F00008E010B541F4F7E010894E11CF11CCC2470
:100F1000DD240F2EF9E68F2EF1E09F2EF02D8C0EA2
:100F20009D1E0F2EF6E86F2EF2E07F2EF02DC601EB
:100F30000E9412090E940B025C01F80181939193B7
:100F40008F010E94B806D7018D939D937D01EDB767
:100F5000FEB73A970FB6F894FEBF0FBEEDBF3196BD
:100F6000ADB7BEB712969C928E9211977382628231
:100F7000D582C482B782A682918780870E942D0F76
:100F8000EDB7FEB73A960FB6F894FEBF0FBEEDBFB1
:100F9000C4010E94A00922E030E0C20ED31E36EB4D
:100FA000C316D10421F680E090E00E94120980E986
:100FB00091E00E94CB099E012D5D3D4FFE01EB5556
:100FC000FE4F8FE097E293838283918380839583A2
:100FD00084833696E217F307B1F723E030E0EE247E
:100FE000FF24F901EE0FFF1F85EB90E08C0F9D1F92
:100FF000E80FF91F808191818436910508F085C042
:10100000F9013196EE0FFF1FA5EBB0E0AC0FBD1F4D
:10101000EA0FFB1F89010F5F1F4F81919191843669
:101020009105C8F3C8010197BC01621B730B6230C4
:1010300071050CF469C0280F391FF701EE0FFF1F6F
:10104000EE0DFF1DEE0FFF1F85EA91E08C0F9D1F37
:10105000E80FF91F31832083C90199230CF401960D
:101060008E7FE1E0F0E0EC0FFD1FE80FF91FC0807C
:10107000D180C701880F991F8E0D9F1D880F991F62
:101080000F2EF5EA6F2EF1E07F2EF02D6C0E7D1EF7
:10109000680E791ED3011596DC92CE921497660FD6
:1010A000771F882777FD8095982F0E94F50A2BEDF2
:1010B0003FE049E450E40E94810B20E030E044E34B
:1010C00053E40E945F0A20E030E040E05FE30E94CA
:1010D000810B0E94300C4B015C01B601660F771F3B
:1010E00080E090E00E94F30AA50194010E94810B28
:1010F0000E94C70ADC01CB01F30193838283089429
:10110000E11CF11C980101C098012F5F3F4F2B3566
:1011100031050CF466CF1E141F040CF052C08E0172
:101120000B551E4F6701CC0CDD1CEC0CFD1C670140
:10113000CC0CDD1CC00ED11E0F2EFDE1EF2EF2E017
:10114000FF2EF02DEC0EFD1E0F2EFAE9AF2EF2E071
:10115000BF2EF02D8DB79EB70A970FB6F8949EBF9D
:101160000FBE8DBFEDB7FEB73196ADB7BEB71296C5
:10117000FC92EE921197B382A282D8018D919C913C
:1011800011979583848312968D919C9113979783E1
:10119000868314968D919C911597918780870E94E4
:1011A0002D0FEDB7FEB73A960FB6F894FEBF0FBEFF
:1011B000EDBFC7010E94A0090A5F1F4F0C151D0556
:1011C00049F6C25BDD4F0FB6F894DEBF0FBECDBF50
:1011D000DF91CF911F910F91FF90EF90DF90CF9013
:1011E000BF90AF909F908F907F906F9008950E94D6
:1011F000120984EF91E00E94CB0908958BEF93E5EB
:10120000909387008093860085ED96E0909385000B
:101210008093840083E280938B008AE180938A002C
:10122000149A0895BC0180E090E00E94F30A20E047
:1012300030E044E353E40E945F0A20E030EC4AE5EA
:1012400055E40E94810B20E030E849E854E40E9414
:10125000FB090E94C70A615070407093850060933B
:10126000840080E090E00E94CB0908950197E4E8B3
:10127000F0E0918380838081918100D000D029ECBF
:1012800032E0EDB7FEB732832183948383830E94DB
:10129000EA020F900F900F900F9084EF91E00E9460
:1012A000CB090895CF93DF93CDB7DEB7C255D040B9
:1012B0000FB6F894DEBF0FBECDBF0E942E050E9470
:1012C0007506DE011196ECECF2E089E201900D92D8
:1012D0008150E1F7DE019A96E5EFF2E089E20190B4
:1012E0000D928150E1F781E090E069E270E0AE019B
:1012F0004F5F5F4F9E01265D3F4F0E94550581E085
:1013000090E00E944B05CE5ADF4F0FB6F894DEBF37
:101310000FBECDBFDF91CF9108955F9BFECF8CB103
:1013200008951092900080E189B91BB886E08093FF
:10133000950088E18AB908955D9BFECF8CB9089528
:10134000CF93DF93EC018881882331F021960E94AE
:101350009C0989918823D9F7DF91CF910895109244
:10136000800310927F03882331F48BE085BD87B71B
:10137000806887BF07C0813029F489E085BD87B7C1
:10138000806887BF7894089587B78F7787BF85B5C2
:101390008F7785BD0895CF93DF93EC018AEF83BDEE
:1013A0001092800310927F0380E00E94AF09809129
:1013B0007F03909180038C179D07C8F30E94C40996
:1013C000DF91CF9108951F920F920FB60F921124C3
:1013D0008F939F9380917F039091800301969093C8
:1013E000800380937F039F918F910F900FBE0F908A
:1013F0001F9018955058BB27AA270ED048C139D145
:1014000030F03ED120F031F49F3F11F41EF42EC194
:101410000EF4E095E7FB24C1E92F4AD180F3BA1717
:10142000620773078407950718F071F49EF562C18F
:101430000EF4E0950B2EBA2FA02D0B01B9019001EF
:101440000C01CA01A0011124FF27591B99F0593F33
:1014500050F4503E68F11A16F040A22F232F342F7B
:101460004427585FF3CF469537952795A795F040C9
:101470005395C9F77EF41F16BA0B620B730B840BDE
:10148000BAF09150A1F0FF0FBB1F661F771F881F96
:10149000C2F70EC0BA0F621F731F841F48F48795EE
:1014A00077956795B795F7959E3F08F0B3CF9395DD
:1014B000880F08F09927EE0F9795879508950CD01F
:1014C000E6C0DED040F0D5D030F021F45F3F19F017
:1014D000C7C0511110C1CAC0EBD098F39923C9F30A
:1014E0005523B1F3951B550BBB27AA27621773072A
:1014F000840738F09F5F5F4F220F331F441FAA1FDE
:10150000A9F333D00E2E3AF0E0E830D0915050409D
:10151000E695001CCAF729D0FE2F27D0660F771F4B
:10152000881FBB1F261737074807AB07B0E809F02D
:10153000BB0B802DBF01FF2793585F4F2AF09E3FC2
:10154000510568F08DC0D7C05F3FECF3983EDCF3E7
:10155000869577956795B795F7959F5FC9F7880F3B
:10156000911D9695879597F90895E1E0660F771F8D
:10157000881FBB1F621773078407BA0720F0621B1E
:10158000730B840BBA0BEE1F88F7E095089598D083
:1015900088F09F5790F0B92F9927B751A0F0D1F05C
:1015A000660F771F881F991F1AF0BA95C9F712C0E6
:1015B000B13081F09FD0B1E008959CC0672F782FA3
:1015C0008827B85F39F0B93FCCF386957795679552
:1015D000B395D9F73EF490958095709561957F4FBE
:1015E0008F4F9F4F0895E89409C097FB3EF4909564
:1015F0008095709561957F4F8F4F9F4F9923A9F0EC
:10160000F92F96E9BB279395F6958795779567957A
:10161000B795F111F8CFFAF4BB0F11F460FF1BC0BE
:101620006F5F7F4F8F4F9F4F16C0882311F096E951
:1016300011C0772321F09EE8872F762F05C06623FF
:1016400071F096E8862F70E060E02AF09A95660FB8
:10165000771F881FDAF7880F9695879597F9089571
:1016600097F99F6780E870E060E008959FEF80EC55
:10167000089500240A9416161706180609060895F8
:1016800000240A9412161306140605060895092E5E
:101690000394000C11F4882352F0BB0F40F4BF2BCD
:1016A00011F460FF04C06F5F7F4F8F4F9F4F08950D
:1016B00057FD9058440F551F59F05F3F71F0479503
:1016C000880F97FB991F61F09F3F79F087950895E8
:1016D000121613061406551FF2CF4695F1DF08C007
:1016E000161617061806991FF1CF86957105610524
:1016F00008940895E894BB2766277727CB0197F9CC
:1017000008950BD0C4CFB5DF28F0BADF18F09523C9
:1017100009F0A6CFABCF1124EECFCADFA0F3959F7F
:10172000D1F3950F50E0551F629FF001729FBB27C8
:10173000F00DB11D639FAA27F00DB11DAA1F649F74
:101740006627B00DA11D661F829F2227B00DA11D27
:10175000621F739FB00DA11D621F839FA00D611DAD
:10176000221F749F3327A00D611D231F849F600DCE
:10177000211D822F762F6A2F11249F5750408AF007
:10178000E1F088234AF0EE0FFF1FBB1F661F771F93
:10179000881F91505040A9F79E3F510570F060CFCF
:1017A000AACF5F3FECF3983EDCF38695779567957B
:1017B000B795F795E7959F5FC1F7FE2B880F911DB1
:1017C0009695879597F90895FA01EE0FFF1F3096C9
:1017D0002105310599F16115710561F48038BFE388
:1017E0009B0749F168949038810561F08038BFEF1C
:1017F0009B0741F0992342F5FF3FE10531052105A3
:1018000011F1E8940894E795D901AA2329F4AB2FA4
:10181000BE2FF85FD0F310C0FF5F70F4A695E0F71D
:10182000F73950F019F0FF3A38F49F779F930CD0B6
:101830000F9007FC905808953EF018CF60E070E0DC
:1018400080E89FE308954FE79F775F934F933F931F
:101850002F93F7D02F913F914F915F9152DF25C089
:10186000DF93D92F85D0E695D7952AED3FE049E45F
:101870005FE3B33A6207730784079507D7952AF0A9
:10188000A2EA49EC9068C8DD02DFECE8F0E05ED047
:10189000DD0F0BF094D0DD0F0BF49058DF9108951D
:1018A00019F40EF0DDCE26CFE1CE0ADFC8F396386C
:1018B000C0F707F80F92E8942BE33AEA48EB5FE7AA
:1018C0002EDF0F920F920F924DB75EB70F92F9D0A5
:1018D000EFEAF0E016D04F915F91EF91FF91E5951F
:1018E000EE1FFF1F49F0FE57E0684427EE0F441F2C
:1018F000FA95E1F74195550B6BD00F9007FE5FC04D
:101900000895DF93CF931F930F93FF92EF92DF928F
:101910007B018C01689405C0DA2EEF01FEDEFE012A
:10192000E894A5912591359145915591AEF3EF013C
:1019300073DDFE019701A801DA9479F7DF90EF904B
:10194000FF900F911F91CF91DF9108959F938F93F7
:101950007F936F93FF93EF939B01AC01D2DEEF91E6
:10196000FF91CFDF2F913F914F915F91CACE7ECEF5
:10197000A7DEE8F3E894E0E0BB279F57F0F02AEDFC
:101980003FE049EC06C0EE0FBB0F661F771F881FB4
:1019900028F0B23A62077307840728F0B25A620B44
:1019A000730B840BE3959A9572F7803830F49A950F
:1019B000BB0F661F771F881FD2F79048B7C09B01E7
:1019C000AC0160E070E080E89FE379CD49CEACC027
:1019D00077DEE8F39923D9F3940F511DBBF39150AF
:1019E000504094F059F0882332F0660F771F881F1B
:1019F00091505040C1F79E3F510544F7880F911D0B
:101A00009695879597F908955F3FACF0983E9CF0C6
:101A1000BB27869577956795B79508F4B160939540
:101A2000C1F7BB0F58F711F460FFE8CF6F5F7F4F2E
:101A30008F4F9F4FE3CF5FCE0EF076C017CE6894E6
:101A40000FCE3EDEC8F39923D1F3C6F3DF93CF93D5
:101A50001F930F93FF92C92FDD2788232AF0219728
:101A6000660F771F881FDAF720E030E040E85FEB71
:101A70009FE3883920F0803E30F021968F77BBDCE1
:101A8000E7EDF0E003C0B7DCE4E0F1E03ADF8B0122
:101A9000BE01EC01FB2E6F5771097595771F880BFE
:101AA000990BA3DD28E132E741E35FE336DEAF2D9A
:101AB0009801AE01FF900F911F91CF91DF91ACDCA7
:101AC000E6CDFA01DC01AA0FBB1F9B01AC01BF5799
:101AD00028F422273327442750781FC0B75188F4B1
:101AE000AB2F0024469537952795011CA395D2F37B
:101AF000002069F0220F331F441FB395DAF30DD095
:101B000079CC61307105A0E88A07B94630F49B01B1
:101B1000AC016627772788279078309621F02083BC
:101B200031834283538308959F3F31F0915020F4D5
:101B3000879577956795B795880F911D96958795A9
:101B400097F9089597FB092E07260AD077FD04D050
:101B50000CD006D000201AF4709561957F4F08953F
:101B6000F6F7909581959F4F0895AA1BBB1B51E1F5
:101B700007C0AA1FBB1FA617B70710F0A61BB70BFD
:101B8000881F991F5A95A9F780959095BC01CD01A2
:101B900008950F931F93CF93DF93689F8001699FF0
:101BA000100D789F100D1124C8010E94E70DC82F59
:101BB000D92F209731F08C2F60E070E0A8010E94AF
:101BC000160FCE01DF91CF911F910F910895CF9302
:101BD000DF93AC018230910510F442E050E0E091D7
:101BE0008303F091840320E030E0A0E0B0E024C063
:101BF0008081918184179507D0F08417950771F43F
:101C000082819381109729F013969C938E9312975B
:101C10002CC0909384038093830327C02115310542
:101C200019F08217930718F49C01BD01EF0192810E
:101C30008381DF01E92FF82F3097D1F62115310587
:101C4000F9F0C901841B950B8430910580F48A81D9
:101C50009B816115710521F0FB019383828304C090
:101C60009093840380938303FE01329642C0FE0169
:101C7000E80FF91F4193519302979983888339C0E4
:101C80008091810390918203009741F48091200319
:101C900090912103909382038093810320911E03EE
:101CA00030911F032115310541F42DB73EB78091C6
:101CB000220390912303281B390BE0918103F091BB
:101CC0008203E217F30798F42E1B3F0B2417350706
:101CD00070F0CA0102962817390748F08E0F9F1F2F
:101CE00090938203809381034193519302C0E0E07B
:101CF000F0E0CF01DF91CF9108950F931F93CF9321
:101D0000DF939C01009709F48CC0DC0112971396B5
:101D10001C921E9212976091830370918403611547
:101D2000710589F48D919C911197820F931F2091D9
:101D30008103309182032817390769F5B093820334
:101D4000A09381036EC0FB0140E050E001C0FC01A4
:101D5000EA17FB0730F482819381AF010097B9F74E
:101D60001FC0E9012297FB83EA8308811981C90119
:101D7000800F911F8E179F0759F480819181800FEA
:101D8000911F029699838883828193819B838A83A2
:101D90004115510529F4B0938403A093830341C0F6
:101DA000FA01B383A283C191D191EC0FFD1FAE174D
:101DB000BF0781F4F901929182918C0F9D1F0296C9
:101DC000DA0111969C938E938281938113969C9352
:101DD0008E931297E0E0F0E002C0FB01BC01DB0152
:101DE00012968D919C9113970097B9F7CB010296AB
:101DF0002D913C911197820F931F20918103309177
:101E000082032817390769F4309729F41092840364
:101E10001092830302C01382128270938203609334
:101E20008103DF91CF911F910F910895DC0101C0D3
:101E30006D9341505040E0F70895FB01DC018D9116
:101E4000019080190110D9F3990B0895FB01DC0171
:101E500001900D920020E1F708950F931F93CF9307
:101E6000DF93CDB7DEB72E970FB6F894DEBF0FBE67
:101E7000CDBF0D891E8986E08C831A8309838FEF7D
:101E80009FE79E838D83AE01475E5F4FCE01019633
:101E90006F89788D0E94940FEF81F885E00FF11F14
:101EA00010822E960FB6F894DEBF0FBECDBFDF9125
:101EB000CF911F910F9108950F931F93CF93DF93AD
:101EC000CDB7DEB72E970FB6F894DEBF0FBECDBFED
:101ED0008C0186E08C831A83098377FF02C060E05F
:101EE00070E8615070407E836D83CE010196BA0127
:101EF000A9010E94940F4D815E8157FD0AC02F8178
:101F00003885421753070CF49A01020F131FF8018A
:101F100010822E960FB6F894DEBF0FBECDBFDF91B4
:101F2000CF911F910F9108952F923F924F925F9200
:101F30006F927F928F929F92AF92BF92CF92DF92D9
:101F4000EF92FF920F931F93CF93DF93CDB7DEB73E
:101F50002D970FB6F894DEBF0FBECDBF3C017D8735
:101F60006C875A01FC0117821682838181FFC8C1E8
:101F70002E010894411C511CF3019381EC85FD85D1
:101F800093FD859193FF8191FD87EC87882309F468
:101F9000B3C1853241F493FD859193FF8191FD8713
:101FA000EC87853229F490E0B3010E94B111E4CFAF
:101FB000FF24EE2410E01032B0F48B3269F08C3242
:101FC00028F4803251F0833271F40BC08D3239F035
:101FD000803349F411602CC01260146029C018606D
:101FE00027C0106125C017FD2EC0282F20532A308E
:101FF00098F416FF08C08F2D880FF82EFF0CFF0CE9
:10200000F80EF20E15C08E2D880FE82EEE0CEE0C99
:10201000E80EE20E10620CC08E3221F416FD6CC187
:10202000106406C08C3611F4106802C0883659F46A
:10203000EC85FD8593FD859193FF8191FD87EC876C
:10204000882309F0B8CF982F9554933018F0905208
:10205000933038F424E030E0A20EB31E3FE339831E
:102060000FC0833631F0833781F0833509F05AC0D1
:1020700022C0F5018081898322E030E0A20EB31EE8
:1020800021E0C22ED12C420114C092E0292E312C25
:102090002A0C3B1CF5018080918016FF03C06F2D38
:1020A00070E002C06FEF7FEFC4010E94A6116C01C7
:1020B00051011F7715C082E0282E312C2A0C3B1CC1
:1020C000F5018080918016FF03C06F2D70E002C083
:1020D0006FEF7FEFC4010E949B116C0110685101EA
:1020E00013FD1CC006C080E290E0B3010E94B11154
:1020F000EA948E2D90E0C816D906A8F30FC0F4011B
:1021000017FD859117FF81914F0190E0B3010E9467
:10211000B111E110EA940894C108D108C114D104A6
:1021200071F7E7C0843611F0893651F5F50117FFD4
:1021300007C080819181A281B38124E030E008C092
:1021400080819181AA2797FDA095BA2F22E030E0E7
:10215000A20EB31E012F0F76B7FF08C0B095A09551
:10216000909581959F4FAF4FBF4F0068BC01CD0147
:10217000A2012AE030E00E94DD11D82ED4183FC021
:10218000853721F41F7E2AE030E020C0197F8F368A
:10219000A9F0803720F4883509F0AEC00BC0803735
:1021A00021F0883709F0A8C001C0106114FF09C0F0
:1021B000146007C014FF08C0166006C028E030E0B5
:1021C00005C020E130E002C020E132E0F50117FF58
:1021D00007C0608171818281938144E050E006C034
:1021E0006081718180E090E042E050E0A40EB51E75
:1021F000A2010E94DD11D82ED418012F0F7706FFFF
:1022000009C00E7FDF1430F404FF06C002FD04C0D5
:102210000F7E02C01D2D01C01F2D802F90E004FFF6
:102220000CC0FE01ED0DF11D2081203311F4097E5B
:1022300009C002FF06C01E5F05C086789070009737
:1022400009F01F5F802E992403FD12C000FF0DC00E
:10225000FD2C1E1550F4FE0CF11A1E2D06C080E256
:1022600090E0B3010E94B1111F5F1E15C0F304C0BE
:102270001E1510F4E11A01C0EE2484FE0FC080E3A5
:1022800090E0B3010E94B11182FE1FC081FE03C025
:1022900088E590E010C088E790E00DC0C401867822
:1022A0009070009791F081FC02C080E201C08BE247
:1022B00007FD8DE290E0B3010E94B11106C080E3FA
:1022C00090E0B3010E94B111FA94DF14C0F3DA94E4
:1022D000F201ED0DF11D808190E0B3010E94B1117A
:1022E000DD20A9F706C080E290E0B3010E94B111A1
:1022F000EA94EE20C1F740CEF3018681978102C0B7
:102300008FEF9FEF2D960FB6F894DEBF0FBECDBFB7
:10231000DF91CF911F910F91FF90EF90DF90CF90C1
:10232000BF90AF909F908F907F906F905F904F90F5
:102330003F902F900895FC0105906150704001106E
:10234000D8F7809590958E0F9F1F0895FC016150DE
:10235000704001900110D8F7809590958E0F9F1FC7
:1023600008950F931F93CF93DF938C01EB018B8123
:1023700081FF1BC082FF0DC02E813F818C819D811A
:102380002817390764F4E881F9810193F983E88318
:1023900006C0E885F985802F0995009731F48E8174
:1023A0009F8101969F838E8302C00FEF1FEFC801AC
:1023B000DF91CF911F910F910895FA01AA2728303C
:1023C00051F1203181F1E8946F936E7F6E5F7F4F02
:1023D0008F4F9F4FAF4FB1E03ED0B4E03CD0670F7E
:1023E000781F891F9A1FA11D680F791F8A1F911DD1
:1023F000A11D6A0F711D811D911DA11D20D009F421
:1024000068943F912AE0269F11243019305D319362
:10241000DEF6CF010895462F4770405D4193B3E04B
:102420000FD0C9F7F6CF462F4F70405D4A3318F0F2
:10243000495D31FD4052419302D0A9F7EACFB4E0A3
:10244000A6959795879577956795BA95C9F700975B
:102450006105710508959B01AC010A2E06945795FC
:10246000479537952795BA95C9F7620F731F841F53
:0A247000951FA01D0895F894FFCFFA
:10247A0073656E736F722D3E7369676E616C203D72
:10248A0025640D0A005363616E20436F6D706C659D
:10249A0074652E0D0A004D6F7665642025640D0A59
:1024AA0000526F74617465642025640D0A00506CD3
:1024BA006179696E6720736F6E672E0042756D7061
:1024CA006572204C65667420547269707065642E5A
:1024DA000A0D0042756D7065722052696768742032
:1024EA00547269707065642E0A0D00436C696666E1
:1024FA00204C65667420547269707065640A0D0018
:10250A00436C6966662046726F6E74204C65667409
:10251A0020547269707065640A0D00436C696666BE
:10252A002046726F6E74205269676874205472690B
:10253A00707065640A0D00436C69666620526967AB
:10254A00687420547269707065640A0D0054617071
:10255A0065204C65667420547269707065640A0D52
:10256A0000546170652046726F6E74204C65667403
:10257A0020547269707065640A0D00546170652098
:10258A0046726F6E7420526967687420547269705B
:10259A007065640A0D005461706520526967687439
:1025AA0020547269707065640A0D000A2D2D2D2D54
:1025BA002D2D2D2D2D2D2D2D2D2D2D2D2D2D2D2D41
:1025CA002D2D2D2D0A0D0044656772656573094925
:1025DA00522044697374616E63652028636D29090A
:1025EA00536F6E61722044697374616E636520284B
:1025FA00636D290A0D000A25303364090925303331
:10260A0064090925303364200D004F626A656374DA
:10261A0020617420416E676C653A2025642C20572E
:10262A00696474683A2025642C2044697374616E65
:10263A0063653A2025640A0D002564003C3E3F3F4D
:10264A00414343464143413F3E3C3C3E3F3F414379
:10265A00434648464A48484A4B4A48464443413F0B
:10266A0043413F3E3C1818601818601818480C0C73
:10267A00181860181860181860181860240C60245C
:10268A000C30303030303060181860181890000064
:04269A008503200094
:00000001FF
